:1000000077C1000095C1000093C1000091C10000BC
:100010008FC100008DC100008BC1000089C10000AC
:1000200087C1000085C1000083C1000081C10000BC
:100030007FC100007DC100007BC1000079C10000CC
:1000400077C10000A2C2000073C1000071C10000AE
:100050006FC100006DC100006BC1000069C10000EC
:1000600067C1000065C1000063C1000061C10000FC
:100070005FC100005DC100005BC1000059C100000C
:1000800057C1000055C1000053C1000051C100001C
:100090000C9488144DC100004BC1000049C1000000
:1000A00047C100000C944D1543C1000041C1000040
:1000B0003FC100003DC100003BC1000039C100004C
:1000C00037C1000035C1000033C1000031C100005C
:1000D0002FC100002DC100002BC1000029C100006C
:1000E00027C10000F106FB06190725072A0731077B
:1000F00019074D074D074D074D074D0705070F071A
:10010000D807DF07F407020810081508F4071908D4
:100110001908190819081908E607ED07A008B90811
:10012000EE08A6093B0A6C0A4B0B7F0B000D760C00
:100130007D0C920C9B0CDD0CE90C000D000D000DEC
:10014000000DF70C000D840C8B0C2A0F460F9A0F34
:10015000B90EBA0F1210E90F190F190F1210121061
:100160001210620F7E0F6E616E00696E66004E4166
:100170004E494E495459494E46CDCCCC3D0AD72321
:100180003C17B7D13877CC2B329595E6241FB14F69
:100190000A000020410000C84200401C4620BCBEAE
:1001A0004CCA1B0E5AAEC59D7400407A10F35A001B
:1001B000A0724E18090010A5D4E80000E876481790
:1001C0000000E40B54020000CA9A3B000000E1F575
:1001D00005000080969800000040420F000000A03B
:1001E0008601000000102700000000E80300000066
:1001F000006400000000000A000000000001000090
:100200000000002C76D888DC674F0823DFC1DFAE02
:1002100059E1B1B796E5E3E453C63AE651997696CB
:10022000E8E6C28426EB898C9B62ED407C6FFCEF94
:10023000BC9C9F40F2BAA56FA5F490055A2AF75CC2
:10024000936B6CF9676DC11BFCE0E40D47FEF52074
:10025000E6B500D0ED902E0300943577050080843C
:100260001E080000204E0A000000C80C3333333350
:100270000F986E12831141EF8D2114893BE65516BC
:10028000CFFEE6DB18D1844B381BF77C1D901DA4F4
:10029000BBE424203284725E228100C9F124ECA1E7
:1002A000E53D276364696E6F70737578585B6566AA
:1002B0006745464700616E006E66696E6974790035
:1002C000CDCCCC3D0AD7233C17B7D13877CC2B32D5
:1002D0009595E6241FB14F0A000020410000C84256
:1002E00000401C4620BCBE4CCA1B0E5AAEC59D74B5
:1002F00011241FBECFEFD1E2DEBFCDBF00E00CBFA7
:100300001AE0A0E0B2E0E0E3FEE400E00BBF02C0D0
:1003100007900D92AC33B107D9F72CE0ACE3BAE00B
:1003200001C01D92AF36B207E1F7F6D00C94162744
:1003300067CECF93C82F60E08DE00E94B8161F9261
:10034000CF9388EB94E09F938F930E94E4160F90D5
:100350000F900F900F90CF910895CF93DF93DC0112
:10036000AA59BF4FFC01EC59FF4F4D915C91208180
:10037000318124173507F4F0EC0161E089E00E9437
:10038000B816FE01EC59FF4F81818F9380818F93C6
:10039000CA59DF4F89818F9388818F9384EB94E0D2
:1003A0009F938F930E94E4160F900F900F900F90E1
:1003B0000F900F90DF91CF9108950F931F93CF93DC
:1003C000DF93EC010E94C01660E080E00E94B81646
:1003D000DF93CF9303E21AE01F930F930E94E4167A
:1003E00061E080E00E94B816CE01C2969F938F9381
:1003F0001F930F930E94E416CE01AFDFC859DF4F61
:10040000888197DF8DB79EB708960FB6F8949EBF88
:100410000FBE8DBFDF91CF911F910F910895E1E83D
:10042000F0E0808188608083808184608083EFE653
:10043000F0E080818260808383E294EF9093890072
:100440008093880078940895E1E8F0E080818760E7
:1004500080830895E1E8F0E080818460808380817A
:100460008C7F808308958530910561F134F4833069
:10047000910551F00497B1F108958630910509F482
:100480003BC00A9781F0089587E49AE041D387E45E
:100490009AE093DF8091AD0A9091AE0A90933E0A64
:1004A00080933D0A089587E49AE00BD387E49AE0AD
:1004B00084DF8091AD0A9091AE0A90933E0A8093BA
:1004C0003D0A0895809101028C5E80930102853679
:1004D00020F084E680930102089577D38091010291
:1004E00028CF0895809101028451809301026DD339
:1004F000809101021ECF089580910002882319F097
:100500002ED3A2DF02C046D3A5DF9091000281E086
:10051000892780930002089597D00E94091560E012
:1005200072EC81E090E00E94C6140E9494138CE06B
:100530000E94051787E49AE09DD28091AF0A8093CC
:1005400001028091AD0A9091AE0A90933E0A809389
:100550003D0A87E49AE031DF62DFCDEADAE080919C
:100560003C0A882371F087E49AE084D288819981DB
:1005700090933E0A80933D0A87E49AE01EDF109232
:100580003C0A0E94FC156FDFEACF1F920F920FB654
:100590000F9211240BB60F922F933F934F935F93BB
:1005A0006F937F938F939F93AF93BF93EF93FF933B
:1005B00080913D0A90913E0A019690933E0A809365
:1005C0003D0A9093AE0A8093AD0A87E49AE0C5DEB7
:1005D0002091AB0A3091AC0A80913D0A90913E0A7D
:1005E0002817390719F481E080933C0AFF91EF91B5
:1005F000BF91AF919F918F917F916F915F914F913B
:100600003F912F910F900BBE0F900FBE0F901F9038
:100610001895E0ECF0E0908195FFFDCF8093C60047
:100620000895CF93E0ECF0E080818823ECF7C0914F
:10063000C600CA3029F08C2FECDF8C2F90E002C06E
:100640008FEF9FEFCF910895E7E6FCE082E092E024
:1006500093838283918380831092C50080E180938D
:10066000C400E0ECF0E080818260808388E18093C8
:10067000C10086E08093C20008955058BB27AA2786
:100680000ED0E5C0D6D030F0DBD020F031F49F3F63
:1006900011F41EF4CBC00EF4E095E7FBC1C0E92FC6
:1006A000E7D080F3BA17620773078407950718F03D
:1006B00071F49EF5FFC00EF4E0950B2EBA2FA02D1D
:1006C0000B01B90190010C01CA01A0011124FF27FF
:1006D000591B99F0593F50F4503E68F11A16F040FA
:1006E000A22F232F342F4427585FF3CF46953795F9
:1006F0002795A795F0405395C9F77EF41F16BA0BBE
:10070000620B730B840BBAF09150A1F0FF0FBB1F6B
:10071000661F771F881FC2F70EC0BA0F621F731FB4
:10072000841F48F4879577956795B795F7959E3F11
:1007300008F0B3CF9395880F08F09927EE0F97959F
:100740008795089504D06894B111B5C0089598D0E4
:1007500088F09F5790F0B92F9927B751A0F0D1F0AA
:10076000660F771F881F991F1AF0BA95C9F712C034
:10077000B13081F09FD0B1E008959CC0672F782FF1
:100780008827B85F39F0B93FCCF3869577956795A0
:10079000B395D9F73EF490958095709561957F4F0C
:1007A0008F4F9F4F0895E89409C097FB3EF49095B2
:1007B0008095709561957F4F8F4F9F4F9923A9F03A
:1007C000F92F96E9BB279395F695879577956795C9
:1007D000B795F111F8CFFAF4BB0F11F460FF1BC00D
:1007E0006F5F7F4F8F4F9F4F16C0882311F096E9A0
:1007F00011C0772321F09EE8872F762F05C066234E
:1008000071F096E8862F70E060E02AF09A95660F06
:10081000771F881FDAF7880F9695879597F90895BF
:1008200097F99F6780E870E060E008959FEF80ECA3
:10083000089500240A941616170618060906089546
:1008400000240A9412161306140605060895092EAC
:100850000394000C11F4882352F0BB0F40F4BF2B1B
:1008600011F460FF04C06F5F7F4F8F4F9F4F08955B
:1008700057FD9058440F551F59F05F3F71F0479551
:10088000880F97FB991F61F09F3F79F08795089536
:10089000121613061406551FF2CF4695F1DF08C055
:1008A000161617061806991FF1CF86957105610572
:1008B00008940895E894BB2766277727CB0197F91A
:1008C00008950BD0C4CFB5DF28F0BADF18F0952318
:1008D00009F0A6CFABCF1124EECFCADFA0F3959FCE
:1008E000D1F3950F50E0551F629FF001729FBB2717
:1008F000F00DB11D639FAA27F00DB11DAA1F649FC3
:100900006627B00DA11D661F829F2227B00DA11D75
:10091000621F739FB00DA11D621F839FA00D611DFB
:10092000221F749F3327A00D611D231F849F600D1C
:10093000211D822F762F6A2F11249F5750408AF055
:10094000E1F088234AF0EE0FFF1FBB1F661F771FE1
:10095000881F91505040A9F79E3F510570F060CF1D
:10096000AACF5F3FECF3983EDCF3869577956795C9
:10097000B795F795E7959F5FC1F7FE2B880F911DFF
:100980009695879597F908950CD061CF59DF40F07F
:1009900050DF30F021F45F3F19F042CF51118BCF7F
:1009A00045CF66DF98F39923C9F35523B1F3951B1F
:1009B000550BBB27AA2762177307840738F09F5F80
:1009C0005F4F220F331F441FAA1FA9F333D00E2EEF
:1009D0003AF0E0E830D091505040E695001CCAF75C
:1009E00029D0FE2F27D0660F771F881FBB1F261721
:1009F00037074807AB07B0E809F0BB0B802DBF01F4
:100A0000FF2793585F4F2AF09E3F510568F008CFAB
:100A100052CF5F3FECF3983EDCF386957795679570
:100A2000B795F7959F5FC9F7880F911D96958795A4
:100A300097F90895E1E0660F771F881FBB1F6217C3
:100A400073078407BA0720F0621B730B840BBA0B81
:100A5000EE1F88F7E09508959F3F31F0915020F404
:100A6000879577956795B795880F911D969587958A
:100A700097F908950F931F93CF93DF93CDB7DEB708
:100A8000C455D1400FB6F894DEBF0FBECDBF8C0168
:100A90006CEB74E0CE0101960E945A14CE010196CF
:100AA00069D1B801CE010196C1D0CC5ADE4F0FB644
:100AB000F894DEBF0FBECDBFDF91CF911F910F9194
:100AC00008950F931F93CF93DF93CDB7DEB7C4552F
:100AD000D1400FB6F894DEBF0FBECDBF8C0166ECDF
:100AE00074E0CE0101960E945A14CE01019642D1C3
:100AF000B801CE0101969AD0CC5ADE4F0FB6F894C9
:100B0000DEBF0FBECDBFDF91CF911F910F91089532
:100B10000F931F93CF93DF93CDB7DEB7C455D1406A
:100B20000FB6F894DEBF0FBECDBF8C0165ED74E04B
:100B3000CE0101960E945A14CE0101961BD1B80134
:100B4000CE01019673D0CC5ADE4F0FB6F894DEBFBB
:100B50000FBECDBFDF91CF911F910F910895CF931D
:100B6000DF93CDB7DEB7C455D1400FB6F894DEBFE2
:100B70000FBECDBF68EE74E0CE0101960E945A14FC
:100B8000CC5ADE4F0FB6F894DEBF0FBECDBFDF915B
:100B9000CF910895CF93DF93CDB7DEB7C455D14041
:100BA0000FB6F894DEBF0FBECDBF68EF74E0CE0184
:100BB00001960E945A14CC5ADE4F0FB6F894DEBF4D
:100BC0000FBECDBFDF91CF9108950F931F93CF93A9
:100BD000DF93CDB7DEB7CA56D1400FB6F894DEBF6B
:100BE0000FBECDBF1F928F9387E095E09F938F93A9
:100BF0008E010F5F1F4F1F930F930E94B125B80105
:100C0000CE0147960E945A140F900F900F900F90AC
:100C10000F900F90C659DE4F0FB6F894DEBF0FBE8F
:100C2000CDBFDF91CF911F910F910895CF93DF93A7
:100C3000CDB7DEB7CA58D1090FB6F894DEBF0FBEE4
:100C4000CDBFFE0131962AE8DF011D922A95E9F712
:100C50002DE135E03A83298343E04B837D836C8328
:100C600022E330E03C8B2B8BA6E2B5E0B98FA88F56
:100C70004A8FAB014E5C5F4F5C8F4B8F3BA72AA71F
:100C80002DE235E038AB2FA79B0128593F4F3BABF6
:100C90002AAB24E335E028963FAF2EAF28979B017F
:100CA0002C593F4F2B963FAF2EAF2B972CE335E0BF
:100CB0006F963FAF2EAF6F979B012A593F4FA29679
:100CC0003FAF2EAFA29740E050E0BF01EBD0C65738
:100CD000DF4F0FB6F894DEBF0FBECDBFDF91CF91CF
:100CE00008950F931F93CF93DF93EC01888188239E
:100CF00049F0DE011196E0E0F0E031969D9191110E
:100D0000FCCF02C0E0E0F0E055231CF0E417F5074B
:100D10003CF48AE495E00E94442581E090E025C0FF
:100D2000E217F30734F02417350754F4E0E0F0E05D
:100D300017C08FE595E00E94442581E090E015C042
:100D40008A01DE01A40FB51FEB01E0E0F0E08D9118
:100D500089933196CF01800F911F28173907BCF76F
:100D6000E60FF71F108280E090E0DF91CF911F9196
:100D70000F9108950F931F93CF93DF93EC016BE7CF
:100D800070E00E945C248C016DE770E0CE010E944F
:100D900089249C012C1B3D0BA8014C1B5D0BBE0143
:100DA000CE019FDFDF91CF911F910F9108950F9397
:100DB0001F93DC016115710529F0FB0180818830EA
:100DC00009F456C012960C91129710E00E301105DE
:100DD00008F063C0F8018827EE58FF4F8F4F0C943E
:100DE000681FCA01880F991F13964D915C91149743
:100DF000840F951F54C0CA01880F991F13964D91F7
:100E00005C911497840F951F4AC0CA01880F991FDF
:100E100013964D915C911497840F951F40C0CA01A1
:100E2000880F991F13964D915C911497840F951F0D
:100E300036C0CA01880F991F880F991F13964D91CC
:100E40005C911497840F951F2AC013968D919C91E5
:100E5000149725C013968D919C911497840F951F1C
:100E60001EC013968D919C911497840F951F17C0E7
:100E7000FB0185819681489F9001499F300D589FC5
:100E8000300D112413968D919C911497820F931F0E
:100E900043815481840F951F02C080E090E01F9130
:100EA0000F9108950F931F938A0120E030E040E0F6
:100EB00050E003D01F910F9108952F923F924F92CF
:100EC0005F926F927F928F929F92AF92BF92CF92DA
:100ED000DF92EF92FF920F931F93CF93DF93CDB7E3
:100EE000DEB7C554D2400FB6F894DEBF0FBECDBFFB
:100EF000C75DDD4F99838883C952D240C95CDD4FFD
:100F000079836883C753D240C35CDD4F59834883DC
:100F1000CD53D240C15CDD4F39832883CF53D240BB
:100F2000C75CDD4F19830883C953D24001151105F1
:100F300019F0D8011D921C92C95CDD4FE881F9813E
:100F4000C753D24080819181892B09F47EC07F01F3
:100F5000FEE0EF0EF11CC95CDD4F08811981C7531B
:100F6000D240C35CDD4FC880D980CD53D240C15C34
:100F7000DD4FA880B980CF53D240D80156968C91CE
:100F8000811157C0A501B601C80111DF9C01892B51
:100F900009F44FC0F801828190E08E30910508F08D
:100FA00048C0FC018827E058FF4F8F4F0C94681F02
:100FB000D7018D919C91F901918380833AC0D7012B
:100FC0008D919C91F9019183808333C0D7018D91DC
:100FD0009C91F901918380832CC0D7018D919C91C4
:100FE000F9019183808325C0D7018D919C91119740
:100FF000F9019183808312968D919C91139793832D
:10100000828317C0C114D10441F0D6018C9188307D
:1010100021F01A141B040CF4ACC5F901108209C0AC
:10102000D7018C91F901808304C0D7018C91F9011B
:101030008083095E1F4FF7E1EF0EF11CD8018D91FF
:101040009C91892B09F099CF06C0C95CDD4F0881BE
:101050001981C753D240C75DDD4FE880F980C9527E
:10106000D240F701B080BB2009F468C5C55CDD4FF4
:1010700019821882CB53D240612C412C512CCB5C6D
:10108000DD4F19821882C553D240712C6E01F7EDE5
:10109000CF1AFDEFDF0A1E0121E2220E311CCE0124
:1010A0000196C55DDD4F99838883CB52D240C55DE3
:1010B000DD4F9881CB52D240CD5BDD4F9883C35436
:1010C000D240C45DDD4F8880CC52D240DE01A05EAC
:1010D000BD4FC35DDD4FB983A883CD52D240CC5BF9
:1010E000DD4FC882C454D240CB5BDD4FD882C5549B
:1010F000D240FE01E95DFD4FC15DDD4FF983E8831C
:10110000CF52D2409E012E5D3D4FCF5CDD4F3983E3
:101110002883C153D240CE014F96CD5CDD4F9983D9
:101120008883C353D240872D90E08930910508F021
:10113000EFC4FC018827E257FF4F8F4F0C94681FC4
:101140008B2D90E00E94FD23892B09F0E1C49BE7E1
:10115000B91609F481C4C75CDD4FA881B981C953B0
:10116000D240109709F408C5ED92FC9281E090E01E
:1011700079C58B2D90E00E94FD23892B09F0C8C40E
:10118000B2E2BB1218C0C75CDD4FE881F981C953D8
:10119000D240309709F463C4F182E0829E012F5F50
:1011A0003F4FCB5CDD4F39832883C553D2406894D1
:1011B000772471F8ADC43DE7B31609F4A9C4C75C40
:1011C000DD4F88819981C953D240009709F4D7C473
:1011D000DC01ED92FC9282E090E044C5CB5CDD4FF7
:1011E000E881F981C553D240EF2B09F4CBC4F2E278
:1011F000BF1293C0CB5CDD4FA880B980C553D240ED
:101200002FEFA21AB20ACB5CDD4FA881B981C5537A
:10121000D2401C92C95CDD4FE881F981C753D240AE
:10122000E080F180E114F10409F4AFC48F01CD5BDB
:10123000DD4F9880C354D240692D782DC7010E949C
:101240006724892B59F0095E1F4FD801ED90FC905F
:10125000E114F10489F783E090E004C5EF2809F474
:1012600097C4F80182818330B9F4828993899C0103
:1012700021503109C55CDD4F39832883CB53D240DF
:10128000CB5CDD4FB982A882C553D24021010F2E1D
:10129000F3E07F2EF02D3CC48A30E9F4F801A685F6
:1012A000B785FD0101900020E9F731979F012A1BC6
:1012B0003B0BC55CDD4F39832883CB53D240CB5CDD
:1012C000DD4FB982A882C553D24021010F2EF3E031
:1012D0007F2EF02D1DC4863009F4CDC38B3009F468
:1012E000E1C384899589892B09F4F3C3CB5CDD4F75
:1012F000B982A882C553D240C55CDD4F1882CB535A
:10130000D240B2E0C45CDD4FB883CC53D24021015F
:101310000F2EF3E07F2EF02DFBC3CB5CDD4FE88179
:10132000F981C553D240CD5CDD4F28813981C3534B
:10133000D240E217F30708F02EC4B0823196CB5C9E
:10134000DD4FF983E883C553D240E2C38B2D90E093
:101350000E94FD23892B09F0DBC33AE3B31609F49D
:10136000D7C38BE5B81229C0D80112968C91893069
:1013700071F0C75CDD4FE881F981C953D2403097E5
:1013800009F40CC4F182E08285E090E06BC4CC5B90
:10139000DD4F4881C454D240CB5BDD4F5881C554EA
:1013A000D240B8016D5F7F4FC70176D4009709F036
:1013B00059C46894772473F8ABC3D80112968C9102
:1013C000893071F4C75CDD4FE881F981C953D2409F
:1013D000309709F4E6C3F182E08286E090E042C4EF
:1013E000FBE7BF1228C0873081F0C75CDD4F288142
:1013F0003981C953D2402115310509F4D5C3D9012A
:10140000ED92FC9285E090E02DC4F8016381748137
:10141000CC5BDD4F4881C454D240CB5BDD4F58815B
:10142000C554D240C7013EDD009709F01BC4689443
:10143000772473F86DC3873081F4C75CDD4F288152
:101440003981C953D2402115310509F4B0C3D901FE
:10145000ED92FC9287E190E005C4B2E2BB1609F47C
:1014600044C3B9A2612CFE01B2962F010F2EF6E003
:101470007F2EF02D4DC34114510409F49BC3FCE5AC
:10148000BF1609F439C322E2B2120AC0D2011C927B
:10149000F20131962F010F2EF7E07F2EF02D38C389
:1014A000C35DDD4F28813981CD52D24024153505E9
:1014B00008F483C3C55CDD4F88819981CB53D2404A
:1014C000820D931D8415950508F47AC3D201BC9250
:1014D000F20131962F011CC34114510409F473C366
:1014E000C35DDD4F28813981CD52D24024153505A9
:1014F00008F46CC3C55CDD4F88819981CB53D24021
:10150000820D931D8415950508F463C33EE6B3165A
:1015100039F13B1538F082E6B81671F096E6B91647
:10152000A9F0B0C0A4E7BA1679F1B5E7BB16B1F1DE
:10153000E2E7BE12A7C01EC088E0D2018C93F20180
:1015400031962F016894772472F8E2C28CE0D201C0
:101550008C93F20131962F016894772472F8D8C2E7
:101560008AE0D2018C93F20131962F01689477249E
:1015700072F8CEC28DE0D2018C93F20131962F0128
:101580006894772472F8C4C289E0D2018C93F20186
:1015900031962F016894772472F8BAC2FFEFEF1AE0
:1015A000FF0AD601ED92FC927E01BEEDEB1ABDEF73
:1015B000FB0AA12CB12C782C470112C0C70101965F
:1015C000F60191838083D7018C91F40181934F01BF
:1015D000FFEFAF1ABF0A24E0A216B10409F426C334
:1015E000D601ED90FC90F701808190E00E94F223FB
:1015F000892B21F7872CE2E2F2E0EC0FFD1FEA0DC8
:10160000FB1D1082D601C70101978D939C93B4E016
:10161000AB16B10409F0E0C2C05DDD4FE881C053F4
:10162000D240EF93C15DDD4FF881CF52D240FF939E
:1016300022E735E03F932F93CE5CDD4F9881C25374
:10164000D2409F93CF5CDD4FA881C153D240AF936E
:101650000E94E0250F900F900F900F900F900F9029
:10166000019709F0BCC2C95DDD4F8881C752D240E5
:10167000F201808392012F5F3F4F29016894772404
:1016800072F846C2D201BC92F20131962F016894E1
:10169000772472F83DC24114510409F4A3C28B2D82
:1016A00090E00E94FD23892B31F4FCE2BF1619F073
:1016B0002DE7B21214C0D2011C92F70180818D3740
:1016C00019F08C3209F01DC2F1E0EF1AF108D601D1
:1016D000ED92FC920F2EF7E07F2EF02D19C2C35D24
:1016E000DD4FE881F981CD52D240E415F50508F4CB
:1016F0007CC2D201BC92F20131962F0109C2A9A08D
:10170000B12CF0E3AF1AB108CF5BDD4FD982C882AC
:10171000C154D240D72C782CCD5BDD4F8880C35488
:10172000D240D80112969C90E92CF12C662041F011
:10173000B3E09B1609F473C0E6E09E1609F478C086
:1017400066E775E0C1010E946724892B39F06BE7D9
:1017500075E0C1010E946724892B29F4F4E0EF169B
:10176000F10409F470C22AE0A216B104B8F46EE2E2
:1017700070E0C1010E945C24892B69F032E0E3161D
:10178000F10461F4872C7D2CCF5BDD4FC880D980BC
:10179000C154D24060C281E0891580F4D8015796C7
:1017A0008D919C915897009749F0682D772D0E9454
:1017B0006724892B19F4095E1F4FB3CF872C7D2C2A
:1017C000CF5BDD4FC880D980C154D240662091F0F4
:1017D000B3E09B16A9F18BEF890D823088F186EF7B
:1017E000890D823068F1F80184899589892B09F087
:1017F00036C2FEC1F3E09F1609F4FDC12AE092163D
:1018000009F4FCC136E0931609F4FBC1D8015496E3
:101810008D919C915597892B09F447C0F5C1872C70
:101820007D2CCF5BDD4FC880D980C154D24008C029
:10183000872C7D2CCF5BDD4FC880D980C154D2402E
:10184000F801E488F588E114F10479F1D7018D916C
:101850009C91009709F4DBC1B1010E946724892B98
:1018600059F0B4E0EB0EF11CF701808191810097F3
:1018700099F782E190E0F6C1D70113968C91139706
:101880008F9312968C918F93EDE0FAE0FF93EF9394
:1018900082E08F9381E08F933F922F920E94742574
:1018A0000FB6F894DEBF0FBECDBFC15CDD4F4881DF
:1018B0005981CF53D240C35CDD4F68817981CD53CC
:1018C000D240C80174DA7C01892B09F499C0D8018F
:1018D00012968C9190E08E30910508F091C0FC0139
:1018E0008827E956FF4F8F4F0C94681FC1010E9453
:1018F000FD22F7019183808383C0C1010E94FD22F4
:10190000D7018D939C937CC0C1010E94FD22F701F9
:101910009183808375C0C1010E94FD22D7018D9300
:101920009C936EC0C1010E94FA22F701608371830B
:101930008283938365C0C35CDD4F28813981CD5399
:10194000D2402115310571F0D9018C91883051F0C8
:10195000C15CDD4FE881F981CF53D2401E161F06CE
:101960000CF458C1F10101900020E9F731979F0173
:1019700022193309CF5BDD4F39832883C154D2400C
:10198000D8015296AD90BC905397B1E0AB1AB10814
:10199000A50160E070E0C7010E945524CF5BDD4FD8
:1019A00048815981C154D240A416B50608F4A50156
:1019B000B101C7010E943B2423C066E775E0C10165
:1019C0000E94672421E0892B09F020E0F7012083A1
:1019D00017C0F10101900020E9F73197E219F309EE
:1019E000329708F01AC189A1D7018C9309C0B101BF
:1019F000F801868597850E946724892B09F010C11C
:101A0000D601ED90FC90F701B0808B2D90E00E9404
:101A1000FD23892B09F07CC0FCE2BF1609F476C0D7
:101A20002DE7B2120AC03FEFE31AF30AC75DDD4F9C
:101A3000F982E882C952D24081C0C75CDD4F8881FB
:101A40009981C953D240009709F4EDC0DC01ED92B1
:101A5000FC9289E090E006C17724739459C0FE019E
:101A60003196CB5CDD4FF983E883C553D24068944F
:101A7000772471F84DC0CB5CDD4FB982A882C55385
:101A8000D240C55CDD4F1882CB53D240F2E0C45C3B
:101A9000DD4FF883CC53D24021010F2EF3E07F2E8F
:101AA000F02D36C0CB5CDD4FB982A882C553D24041
:101AB000C55CDD4F1882CB53D24022E0C45CDD4FC1
:101AC0002883CC53D24021010F2EF3E07F2EF02D3E
:101AD0001FC0CB5CDD4FB982A882C553D240210123
:101AE0000F2EF3E07F2EF02D13C0662463942101A6
:101AF0006894772472F80CC00F2EF5E07F2EF02D3D
:101B000007C00F2EF7E07F2EF02D02C077247394CC
:101B1000D601ED91FC917F01BFEFEB1AFB0AD601D4
:101B2000ED92FC92B180B110FECA08C00F5F1F4F4A
:101B3000C75DDD4F19830883C952D240C75DDD4FB1
:101B400008811981C952D240F801808190E00E9439
:101B5000FD23009759F7C75CDD4F28813981C953B0
:101B6000D2402115310509F47DC0D9010D931C9394
:101B700079C081E190E076C081E090E073C082E0BE
:101B800090E070C086E190E06DC083E090E06AC0B4
:101B900083E090E067C084E090E064C085E090E07E
:101BA00061C086E090E05EC085E090E05BC087E1C8
:101BB00090E058C086E190E055C087E090E052C0C8
:101BC00087E090E04FC086E190E04CC087E090E075
:101BD00049C087E090E046C08FE090E043C08FE0CE
:101BE00090E040C086E190E03DC088E090E03AC0DF
:101BF00083E190E037C083E190E034C083E190E07E
:101C000031C083E190E02EC083E190E02BC082E1FF
:101C100090E028C081E190E025C087E090E022C0FC
:101C200080E190E01FC089E090E01CC0872CCA5D75
:101C3000DD4F1882C652D240F60180819181019712
:101C400091838083E9CC872C7D2CCF5BDD4FC880CE
:101C5000D980C154D240662009F4CCCDBCCDE488F3
:101C6000F588F4CDCB5BDD4F0FB6F894DEBF0FBE29
:101C7000CDBFDF91CF911F910F91FF90EF90DF903B
:101C8000CF90BF90AF909F908F907F906F905F901C
:101C90004F903F902F9008953F924F925F926F9296
:101CA0007F928F929F92AF92BF92CF92DF92EF92EC
:101CB000FF920F931F93CF93DF9300D01F92CDB766
:101CC000DEB79C838B836B015A014115510541F0AE
:101CD000DA011D921C9204C00F5F1F4F1C830B83FF
:101CE0000B811C81F801F0808F2D90E00E94FD2374
:101CF000892B91F7FBE5FF12FBC10F5F1F4F1C8380
:101D00000B83D60113966D907C90149704C00F5FDF
:101D10001F4F1C830B830B811C81F8019080892D40
:101D200090E00E94FD237C01892B89F7FDE59F1639
:101D300009F4CAC1D60119968D919C911A9718166B
:101D400019060CF0B3C1412C512C812C912C332459
:101D500033941A821982F601808190E08E309105C9
:101D600008F037C1FC018827EB55FF4F8F4F0C94CB
:101D7000681F0B811C81D8018C9190E00E94FD238B
:101D8000892B21F00F5F1F4F1C830B83EB81FC819C
:101D90008081823209F04CC13196FC83EB83D601FD
:101DA0001196ED91FC911297E40DF51D7182608200
:101DB00013968D919C9114979301281B390B1596BE
:101DC0008D919C911697281739070CF037C1EB813C
:101DD000FC818081823241F0811112C035C1EB81DA
:101DE000FC818081823249F43196FC83EB83F301DC
:101DF0001082C30101963C01ECC0882309F42AC17A
:101E0000CF0101969C838B838081D3018D933D010B
:101E1000F601838194819D01281B390B8581968170
:101E200028173907E4F20F2EFFE0EF2EF12CF02DEA
:101E30006AC1D60111966D917C9112978E010D5F4A
:101E40001F4F9401A6018B819C8137D8009709F41C
:101E5000C0C006C1F60101811281040D151D40E0CC
:101E600050E0BE016F5F7F4F8B819C810E94C52037
:101E7000D8016D937C9389819A812B813C81821753
:101E8000930709F4EFC09C838B83A3C0F601018103
:101E90001281040D151D40E050E0BE016F5F7F4FC1
:101EA0008B819C810E94F021D8016D937C93898164
:101EB0009A812B813C818217930709F4D9C09C83B6
:101EC0008B8387C0F60101811281040D151D40E04E
:101ED00050E0BE016F5F7F4F8B819C810E94C520C7
:101EE000D8016D937C9389819A812B813C818217E3
:101EF000930709F4C3C09C838B836BC0F6010181F7
:101F00001281040D151D40E050E0BE016F5F7F4F50
:101F10008B819C810E94C520D8016D937C9389811F
:101F20009A812B813C818217930709F4ADC09C8371
:101F30008B834FC0F60101811281C201880F991F66
:101F4000080F191FBE016F5F7F4F8B819C810E941C
:101F5000701FD8016D937D938D939C931397898106
:101F60009A812B813C818217930709F493C09C834B
:101F70008B832FC00B811C8144E050E066E775E045
:101F8000C8010E947024892B71F4D6011196ED913D
:101F9000FC911297E80DF91D30828B819C8104968B
:101FA0009C838B8316C045E050E06BE775E0C80169
:101FB0000E947024892B69F4D6011196ED91FC9151
:101FC0001297E80DF91D10828B819C8105969C83E8
:101FD0008B83BFEF8B1A9B0A0B811C81F8018081D8
:101FE00090E00E94FD23892B21F00F5F1F4F1C837F
:101FF0000B83EB81FC8180818D3509F467C08C32C5
:1020000009F04EC03196FC83EB83F2E04F0E511C79
:10201000D60119968D919C911A97881699060CF401
:1020200098CE44C00F2EFEE0EF2EF12CF02D6BC0A9
:102030000F2EFFE0EF2EF12CF02D65C00F2EFFE0EC
:10204000EF2EF12CF02D5FC00F2EFFE0EF2EF12CC4
:10205000F02D59C00F2EFFE0EF2EF12CF02D53C0C4
:102060007C0151C00F2EF5E1EF2EF12CF02D4BC06D
:102070000F2EF5E1EF2EF12CF02D45C00F2EF5E1DE
:10208000EF2EF12CF02D3FC00F2EF5E1EF2EF12CAD
:10209000F02D39C00F2EF5E1EF2EF12CF02D33C0CD
:1020A0000F2EFDE0EF2EF12CF02D2DC0A114B10468
:1020B00029F18B819C81F501918380830F2EFCE0B7
:1020C000EF2EF12CF02D1FC0812C912CD6011796EC
:1020D000ED91FC911897309711F091828082A114B4
:1020E000B10489F08B819C81F501918380830BC0C1
:1020F0000F2EFAE0EF2EF12CF02D05C00F2EFCE094
:10210000EF2EF12CF02DC7010F900F900F900F9034
:10211000DF91CF911F910F91FF90EF90DF90CF90C3
:10212000BF90AF909F908F907F906F905F904F90F7
:102130003F9008952F923F924F925F926F927F92BD
:102140008F929F92AF92BF92CF92DF92EF92FF92C7
:102150000F931F93CF93DF93CDB7DEB72C970FB6B6
:10216000F894DEBF0FBECDBF9E838D832DB73EB7E3
:102170003C872B87FC0101900020E9F731975F0134
:10218000A81AB90ABB24A5014150510958874F83A9
:102190008DB79EB78A199B090FB6F8949EBF0FBEE4
:1021A0008DBFADB7BEB711964D0180913F0A90919A
:1021B000400AA091410AB091420A803F984DAF4F2A
:1021C000BF4F61F410923F0A1092400A1092410AE8
:1021D0001092420A82E08093060C9BC019821A82F8
:1021E0001B821C822F803884280C391C94012F5F9D
:1021F0003F4F3A8729878091060C843011F4109262
:10220000060CE1EBFAE001900020E9F73197CF01ED
:10221000815B9A406C01E12CF12CC114D104E104E2
:10222000F10409F451C08FE99FE00197F1F700C074
:10223000000029813A814B815C812F5F3F4F4F4FD6
:102240005F4F29833A834B835C83E1EBFAE0019093
:102250000020E9F73197CF01815B9A40A0E0B0E020
:10226000C816D906EA06FB0679F501EB1AE0412CFF
:10227000512C32014F81588569857A85C4010E94AD
:102280004424D8018D918D01F1018083A5016D81D8
:102290007E81C4010E947024892B61F410923F0A50
:1022A0001092400A1092410A1092420A81E08093F3
:1022B000060C2FC0FFEF4F1A5F0A6F0A7F0A4C14FB
:1022C0005D046E047F04B1F68FE99FE00197F1F79A
:1022D00000C0000029813A814B815C812F5F3F4F14
:1022E0004F4F5F4F29833A834B835C8380913F0A32
:1022F0009091400AA091410AB091420A805F984DA6
:10230000AF4FBF4F281739074A075B0708F473CF51
:1023100059CF4B855C850FB6F8945EBF0FBE4DBF9D
:102320002C960FB6F894DEBF0FBECDBFDF91CF91D4
:102330001F910F91FF90EF90DF90CF90BF90AF90E3
:102340009F908F907F906F905F904F903F902F90D5
:10235000089584E591E0E1EBFAE0DF019C011D9234
:1023600021503040E1F71092460A1092450A10922F
:10237000440A1092430A0895CF93DF93EC0184E05E
:102380008093060CCE01D6DE8091060C8823D1F313
:10239000DF91CF910895F0DF81E09091060C9230AB
:1023A00009F480E008950F931F93CF93DF938C017E
:1023B000EB01CFDFC8011FD38EEF98E01CD3CE0115
:1023C000EADFDF91CF911F910F9108950F931F9333
:1023D000CF93DF93CDB7DEB764970FB6F894DEBF27
:1023E0000FBECDBF8E010F5F1F4F94E1F801119218
:1023F0009A95E9F71F928F938DE998E09F938F93B9
:102400001F930F930E94B1251C8A66E978E0C801EA
:10241000CADF0F900F900F900F900F900F9064965F
:102420000FB6F894DEBF0FBECDBFDF91CF911F91E5
:102430000F9108950F931F93CF93DF93CDB7DEB71E
:1024400064970FB6F894DEBF0FBECDBF8E010F5F4D
:102450001F4F94E1F80111929A95E9F71F928F931B
:102460008BEA98E09F938F931F930F930E94B1255F
:102470001C8A66E978E0C80196DF0F900F900F90F4
:102480000F900F900F9064960FB6F894DEBF0FBEBA
:10249000CDBFDF91CF911F910F910895CF93C5E0EC
:1024A00066E978E088EB98E07EDF811109C066E993
:1024B00078E08DEB98E077DF811102C0C15081F7A1
:1024C000CF9108950F931F93CF93DF93CDB7DEB7CE
:1024D00064970FB6F894DEBF0FBECDBF8E010F5FBD
:1024E0001F4F94E1F80111929A95E9F71F928F938B
:1024F0008EEC98E09F938F931F930F930E94B125CA
:102500001C8A66E978E0C8014EDF0F900F900F90AB
:102510000F900F900F9064960FB6F894DEBF0FBE29
:10252000CDBFDF91CF911F910F9108950F931F930E
:10253000CF93DF93CDB7DEB7EC970FB6F894DEBF3D
:102540000FBECDBF8E010F5F1F4F2CE3F80111921C
:102550002A95E9F77F936F939F938F938BED98E084
:102560009F938F931F930F930E94B1251CAE6EEE25
:1025700078E0C80118DF0FB6F894DEBF0FBECDBFFC
:10258000811122C061E079E081EB9AE00E949424FD
:10259000892BE1F46AE079E081EB9AE00E949424CF
:1025A000892BB1F463E179E081EB9AE00E949424F5
:1025B000892B81F46CE179E081EB9AE00E9494240C
:1025C000892B51F485E009C080E007C081E005C097
:1025D00082E003C083E001C084E0EC960FB6F8947B
:1025E000DEBF0FBECDBFDF91CF911F910F91089538
:1025F00066E978E085E299E0D6DE62E379E081EB96
:102600009AE00E949424892BD1F46BE379E081EB6A
:102610009AE00E949424892BA1F464E479E081EB90
:102620009AE00E949424892B71F46DE479E081EBA7
:102630009AE00E949424892B41F484E0089580E07C
:10264000089581E0089582E0089583E00895DF927F
:10265000EF92FF920F931F93CF93DF93CDB7DEB727
:10266000EC970FB6F894DEBF0FBECDBFD82E162F55
:10267000072FF42EE52EFE0131968CE3DF011D922B
:102680008A95E9F766E579E08FE599E08CDE8823A5
:10269000A1F0EF92FF920F931F938AE699E09F9328
:1026A0008F93CE0101969F938F930E94B1250FB611
:1026B000F894DEBF0FBECDBF15C0EF92FF920F930F
:1026C0001F931F92DF9284E899E09F938F93CE012E
:1026D00001969F938F930E94B1250FB6F894DEBFA9
:1026E0000FBECDBF63EA79E0CE0101965CDE8111B9
:1026F0000AC08091060C823041F48DEA99E00E9474
:10270000442582E003C081E001C085E0EC960FB66D
:10271000F894DEBF0FBECDBFDF91CF911F910F9117
:10272000FF90EF90DF900895B9DE8823E9F381E010
:10273000C9DE80E07FDE80E049DE5ADF833029F4A5
:1027400063ED79E081EE99E0F1DE40EF59E066EF6C
:1027500079E080E07CCF08954BDF8093050C8330D7
:1027600029F463ED79E081EE99E0E0DE8091050CDB
:10277000823031F440EF59E066EF79E080E067CFD6
:102780000895EF92FF920F931F93CF93DF93CDB7EE
:10279000DEB764970FB6F894DEBF0FBECDBF8C01D5
:1027A000CE0101967C0184E1F70111928A95E9F747
:1027B000F80101900020E9F7CF01801B910B0196F1
:1027C0009F938F9382E09AE09F938F93FF92EF9273
:1027D0000E94B1251C8A60E17AE0C701E4DD68E16E
:1027E0007AE0C801E0DD0F900F900F900F900F90EE
:1027F0000F90811106C08091060C823021F085E097
:1028000003C081E001C082E064960FB6F894DEBF99
:102810000FBECDBFDF91CF911F910F91FF90EF9031
:1028200008958091450A9091460A2091430A30917B
:10283000440A821B930B08952091430A3091440A65
:102840008091450A9091460A2817390784F48091AF
:10285000430A9091440A9C012F5F3F4F3093440AF2
:102860002093430AFC01EF54F54F8081089571DDF8
:1028700080E008950F931F93CF93DF932FEF31EEF6
:1028800044E0215030404040E1F700C00000C82F34
:10289000D92F00E010E004C00F5F1F4FCDDF8993F8
:1028A000C0DF18161906C4F3C801DF91CF911F913C
:1028B0000F9108950F931F93CF93DF93D82FC92FB4
:1028C000162F072F49DFED2FFC2F84E591E0DF0164
:1028D0009C011D9221503040E1F70F931F938FE12F
:1028E0009AE09F938F93CF93DF930E94B1258D2F12
:1028F0009C2F47DF8D2F9C2FBDDF0F900F900F90E7
:102900000F900F900F90DF91CF911F910F9108952D
:102910001F920F920FB60F9211240BB60F922F93A6
:102920003F938F939F93EF93FF932FB7F894E0918A
:10293000450AF091460A8091CE00EF54F54F80830E
:102940008091450A9091460A01969093460A809399
:10295000450A8091450A9091460A8435914041F498
:102960001092460A1092450A1092440A1092430AA5
:102970002FBFFF91EF919F918F913F912F910F90DA
:102980000BBE0F900FBE0F901F901895E8ECF0E073
:10299000208122602083E9ECF0E0208128692083F7
:1029A000EAECF0E02081266020830E94D30320E03F
:1029B00030E040E051E40E9461049B01AC0160E022
:1029C00074E284E79BE40E94C40420E030E040E825
:1029D0005FE30E943D0361D20E94A2036093CC009A
:1029E0007093CD0008958093CE00E8ECF0E08081F4
:1029F00085FFFDCF0895CF93DF93EC018881882375
:102A000029F02196F0DF89918111FCCFDF91CF91E0
:102A10000895EAE0F1E0808181708083E1EAF0E0EE
:102A2000808180648083A2E7B0E08C9180628C9387
:102A3000808185608083789408950F931F93CF934E
:102A4000DF938C01FC01308161E172E0C0E0D0E0F5
:102A5000AC01405E5F4F0EC02D919191291304C0CF
:102A6000E417F507C9F70FC02196605E7F4FCB30A2
:102A7000D10561F0FB01319780818313F5CFF80117
:102A80003196DB01E9CF8C2F9D2F02C086E190E0CB
:102A9000DF91CF911F910F9108951F920F920FB662
:102AA0000F9211240BB60F92FF920F931F932F9347
:102AB0003F934F935F936F937F938F939F93AF93C6
:102AC000BF93CF93DF93EF93FF938091B1049091E5
:102AD000B204992354F401969093B2048093B10404
:102AE0001092A5001092A4006FC02091B30422237D
:102AF00049F01092B3048FEF9FEF9093B20480934C
:102B0000B10462C02091A4003091A500FC01EE0F39
:102B1000FF1FE95FF34F3183208301969093B20446
:102B20008093B104809709F04FC0FF24F394809103
:102B3000070C9091080C4A9708F4F12CE5E0FCE0B2
:102B4000A7E4BCE021E030E061E070E08D0104C06A
:102B50002F5F3F4F329611962130310519F4E8016D
:102B6000F882F6CF8281938140815181841B950B3D
:102B7000462F4A9708F4472F4C932032310540F3F3
:102B8000DFEF21EE84E0D15020408040E1F700C02B
:102B900000008FEF9FEF9093B2048093B10481E027
:102BA0008093B30487E49CE048DF8093B0049927C6
:102BB0009F938F9386E29AE09F938F930E94302594
:102BC0000F900F900F900F90FF91EF91DF91CF91A9
:102BD000BF91AF919F918F917F916F915F914F9135
:102BE0003F912F911F910F91FF900F900BBE0F906F
:102BF0000FBE0F901F9018959091B004292F30E0D0
:102C0000963119F086E18093B004C9010895E2E09D
:102C1000F1E0808180628083000080818F7D8083ED
:102C20000895CF93C82F662331F0E2E0F1E0808170
:102C30008061808305C0E2E0F1E080818F7E808347
:102C4000E2E0F1E08081877F8083A1E0B1E08C91B8
:102C500080648C93249A259A269A2E982D982C98E5
:102C600080818F7B8083CC230CF42E9AC6FD2D9A15
:102C7000C5FD2C9AC4FF05C0E2E0F1E080818064CC
:102C80008083C5DF2E982D982C98E2E0F1E08081BA
:102C90008F7B8083C3FD2E9AC2FD2D9AC1FD2C9A95
:102CA000C0FF05C0E2E0F1E0808180648083AFDF97
:102CB000E2E0F1E08081806480832C9A2D9A2E9A44
:102CC000CF910895882331F0E2E0F1E080818061C6
:102CD000808305C0E2E0F1E080818F7E8083E2E0C6
:102CE000F1E0808188608083A1E0B1E08C918F7BEE
:102CF0008C93249825982698808180628083000098
:102D00008091000186FF02C080E101C080E01C9933
:102D100080621D9980641E998068E2E0F1E09081F4
:102D20009F7D90830000908190629083000090913D
:102D3000000196FD81601C9982601D9984601E9936
:102D40008860E2E0F1E090819F7D9083089580E0CB
:102D5000B9DF8823E4F300C000C080E0B3CF08955A
:102D6000CF93C82FF4DF60E08C2F5BDFCF91089505
:102D7000611103C08058F4CF08958054F1CF0895B5
:102D800081E0EECF0895CF93C82FE1DFCA3041F440
:102D9000803410F080E001C080E48058E1DF03C09F
:102DA00061E08C2F3EDFCF910895CF93DF93EC014C
:102DB0002196FC018081882321F0E5DF8991811132
:102DC000FCCFDF91CF910895CF93DF93CDB7DEB7DE
:102DD00060970FB6F894DEBF0FBECDBFAE014A5E5E
:102DE0005F4FFA0161917191AF01CE0101960E948E
:102DF0000126CE010196D9DF60960FB6F894DEBFAA
:102E00000FBECDBFDF91CF9108951F93CF93DF9376
:102E1000182F279AE1E0F1E0808180618083808132
:102E200088608083808180628083808180648083E9
:102E3000249A259A269A8FE99FE00197F1F700C01E
:102E400000002C9AC2E0D1E0888180648883DFDEB4
:102E500081EE94E00197F1F700C00000D8DE95E123
:102E60009A95F1F70000D3DE85E18A95F1F700002D
:102E700088818F7B8883CBDE95E19A95F1F70000FE
:102E800088E26EDF88E06CDF7BDF86E069DF812F20
:102E900067DFDF91CF911F9108950E944004E0F019
:102EA0009E37E0F09639B8F49E3848F4672F782FB3
:102EB0008827985FF9CF869577956795939595398B
:102EC000D0F3B62FB1706B0F711D811D20F4879563
:102ED00077956795939504C00C942C050C945B042E
:102EE000882371F4772321F09850872B762F07C021
:102EF000662311F499270DC09051862B70E060E095
:102F00002AF09A95660F771F881FDAF7880F969533
:102F1000879597F908952F923F924F925F926F9203
:102F20007F928F929F92AF92BF92CF92DF92EF9259
:102F3000FF920F931F93CF93DF93CDB7DEB76097C8
:102F40000FB6F894DEBF0FBECDBF7C011B016A0136
:102F5000FC0117821682838181FF44C39E012F5F8B
:102F60003F4F3901F7019381F10193FD859193FF63
:102F700081911F01882309F431C3853239F493FD0F
:102F8000859193FF81911F01853239F4B70190E05B
:102F90000E94F42456016501E5CF10E0512C912CDC
:102FA000FFE1F915D8F08B3279F038F4803279F0FE
:102FB0008332A1F4F92DF0612EC08D3261F080339F
:102FC00069F4292D21602DC0392D3260932E892D71
:102FD0008460982E2AC0E92DE86015C097FC2DC0AA
:102FE00020ED280F2A3088F496FE06C03AE0139FA1
:102FF000200D1124122F19C08AE0589E200D112493
:10300000522EE92DE0629E2E10C08E3231F496FCD5
:10301000E5C2F92DF0649F2E08C08C3621F4292DCD
:103020002068922E02C0883641F4F10193FD85910B
:1030300093FF81911F018111B3CF9BEB980F9330C8
:1030400020F4992D9061805E07C09BE9980F933022
:1030500008F066C1992D9F7E96FF16E09F73992E0A
:10306000853619F49064992E08C0863621F4392FDC
:103070003068932E02C01111115097FE07C01C3307
:1030800050F444244394410E27E00BC0183038F02C
:1030900027E017E005C027E09CE3492E02C0212F5E
:1030A000412C560184E0A80EB11CF60160817181AB
:1030B00082819381042DA3010E941A236C01F9815E
:1030C000FC87F0FF02C0F3FF06C091FC06C092FE31
:1030D00006C000E205C00DE203C00BE201C000E043
:1030E0008C858C7019F001115AC29BC297FE10C0DA
:1030F0004C0CFC85F4FF04C08A81813309F44A94A6
:10310000141474F528E0241578F588E0482E2CC0B6
:1031100096FC2AC0812F90E08C159D059CF03CEF19
:10312000C3163FEFD30674F0892D8068982E0AC02D
:10313000E2E0F0E0EC0FFD1FE10FF11D8081803334
:1031400019F411501111F4CF97FE0EC0442443948A
:10315000410E812F90E0C816D9062CF41C1904C02A
:103160004424439401C010E097FE06C01C141D04C3
:1031700034F4C601019605C085E090E002C081E00C
:1031800090E001110196112331F0212F30E02F5FE3
:103190003F4F820F931F252D30E08217930714F4C1
:1031A000581A01C0512C892D897049F4552039F0E5
:1031B000B70180E290E00E94F4245A94F7CF0023F4
:1031C00029F0B701802F90E00E94F42493FC09C0FD
:1031D000552039F0B70180E390E00E94F4245A941E
:1031E000F7CF97FE4CC04601D7FE02C0812C912C30
:1031F000C60188199909F301E80FF91FFE87ED87C9
:10320000960124193109388B2F87012F10E0119571
:10321000019511093FEF8316930629F4B7018EE259
:1032200090E00E94F424C814D9044CF08F8598894A
:103230008815990524F4ED85FE85818101C080E320
:10324000F1E08F1A91082D853E852F5F3F4F3E8715
:103250002D87801691062CF0B70190E00E94F4248F
:10326000D9CFC814D90441F49A81963320F4953308
:1032700019F43C8534FF81E3B70190E04EC08A81A8
:10328000813319F09C859F7E9C87B70190E00E9456
:10329000F424111105C094FC18C085E690E017C015
:1032A000B7018EE290E00E94F4241E5F82E001E00C
:1032B000080FF301E80FF11D8081B70190E00E9433
:1032C000F424802F0113F3CFE6CF85E490E0B7011B
:1032D0000E94F424D7FC06C0C114D10441F4EC854B
:1032E000E4FF05C0D194C194D1088DE201C08BE206
:1032F000B70190E00E94F42480E32AE0C216D104D2
:103300002CF08F5FFAE0CF1AD108F7CFB70190E029
:103310000E94F424B701C601C0960E94F42454C14F
:10332000833631F0833779F0833509F056C020C0F9
:10333000560132E0A30EB11CF6018081898301E0C1
:1033400010E0630112C05601F2E0AF0EB11CF601AD
:10335000C080D18096FE03C0612F70E002C06FEF85
:103360007FEFC6010E947E248C01F92DFF7714C0E7
:10337000560122E0A20EB11CF601C080D18096FE5B
:1033800003C0612F70E002C06FEF7FEFC6010E94A3
:1033900030248C01F92DF0689F2EF3FD1AC0852D85
:1033A00090E008171907A8F4B70180E290E00E94A6
:1033B000F4245A94F4CFF60197FC859197FE8191FD
:1033C0006F01B70190E00E94F42451105A9401500B
:1033D00011090115110579F7F7C0843611F0893606
:1033E00061F5560197FE09C024E0A20EB11CF6015A
:1033F00060817181828193810AC0F2E0AF0EB11CBD
:10340000F60160817181072E000C880B990BF92D54
:10341000FF769F2E97FF09C09095809570956195D6
:103420007F4F8F4F9F4FF0689F2E2AE030E0A3011F
:103430000E944326C82EC6183FC0092D853721F4A7
:103440000F7E2AE030E01DC0097F8F3691F018F41E
:10345000883559F0C3C0803719F0883711F0BEC0E5
:10346000006104FF09C0046007C094FE08C0066044
:1034700006C028E030E005C020E130E002C020E1D5
:1034800032E0560107FF09C084E0A80EB11CF60126
:10349000608171818281938108C0F2E0AF0EB11C1E
:1034A000F6016081718180E090E0A3010E944326D3
:1034B000C82EC6180F77902E96FE0BC0092D0E7FD2
:1034C000C11650F494FE0AC092FC08C0092D0E7E6D
:1034D00005C0DC2C092D03C0DC2C01C0D12E04FF5B
:1034E0000DC0FE01EC0DF11D8081803311F4097EC9
:1034F00009C002FF06C0D394D39404C0802F8678FD
:1035000009F0D39403FD11C000FF06C01C2DD51493
:1035100080F4150D1D190DC0D51458F4B70180E2C3
:1035200090E00E94F424D394F7CFD51410F45D18E2
:1035300001C0512C04FF10C0B70180E390E00E944D
:10354000F42402FF17C001FD03C088E790E002C029
:1035500088E590E0B7010CC0802F867859F001FF14
:1035600002C08BE201C080E207FD8DE2B70190E06E
:103570000E94F424C11638F4B70180E390E00E9461
:10358000F4241150F7CFCA94F301EC0DF11D8081A2
:10359000B70190E00E94F424C110F5CF15C0F4E00B
:1035A000F51560F584E0581A93FE1FC0011127C07D
:1035B0002C8523FF2AC006E611E0392D3071932EA9
:1035C000F8018491811124C0552009F4E4CCB7019D
:1035D00080E290E00E94F4245A94F6CFF7018681AD
:1035E000978126C08FEF9FEF23C0B70180E290E064
:1035F0000E94F4245A945110F8CFD8CF512CB7011F
:10360000802F90E00E94F424D3CF0AE611E0D5CFBA
:1036100091108052B70190E00E94F4240F5F1F4F79
:10362000CFCF23E0251510F483E0BDCF512CC0CFC0
:1036300060960FB6F894DEBF0FBECDBFDF91CF917D
:103640001F910F91FF90EF90DF90CF90BF90AF90C0
:103650009F908F907F906F905F904F903F902F90B2
:10366000089520FD09C0FC0123FD05C022FF02C012
:103670007383628351834083089544FD17C046FDE0
:1036800017C0AB01BC01DA01FB01AA0FBB1FEE1F83
:10369000FF1F1094D1F74A0F5B1F6E1F7F1FCB01D6
:1036A000BA01660F771F881F991F09C033E001C058
:1036B00034E0660F771F881F991F3150D1F7620FD2
:1036C000711D811D911D08950F931F93CF93DF935B
:1036D0008C01C8010E94B624EC0197FD08C00E942D
:1036E000FD23892BB1F7B801CE010E942A26CE0115
:1036F000DF91CF911F910F9108958F929F92AF927A
:10370000BF92CF92DF92EF92FF920F931F93CF93CE
:10371000DF937C018B016A01D22F0E94B6249C01A9
:1037200033272B32310521F02D32310559F4D06881
:103730000150110911F480E069C0C7010E94B6244C
:1037400097FDF9CFCD2FCD7F2D2F207319F5803325
:1037500009F5580181E0A81AB10809F444C0C7016D
:103760000E94B62497FD3FC09C012F7D332728354A
:10377000310551F4C26402501109A9F1C7010E9438
:10378000B62497FF07C02FC0D6FF02C0C26001C099
:10379000C2618501812C912C540120ED280F283025
:1037A00080F0C4FF04C0B7010E942A2619C02A3045
:1037B00040F0C6FFF8CF2F7D3FEE320F363098F73E
:1037C00027504C2FC501B40158DF4B015C01C2608A
:1037D0000150110959F0C7010E94B62497FFDDCFAF
:1037E000C1FD04C0A8CF812C912C5401C7FF08C093
:1037F000B094A09490948094811C911CA11CB11C45
:103800002C2FB501A401C6012CDF81E0DF91CF91FF
:103810001F910F91FF90EF90DF90CF90BF90AF90EE
:103820009F908F9008954F925F926F927F928F92A8
:103830009F92AF92BF92CF92DF92EF92FF920F933F
:103840001F93CF93DF93CDB7DEB7A0970FB6F89451
:10385000DEBF0FBECDBF5C014B017A018E010F5F51
:103860001F4F680180E2F80111928A95E9F7F5018E
:10387000538040E050E0612C90E0712CA1E0B0E07A
:10388000F90153FC859153FE81918F01482E9F01D0
:10389000811103C080E090E096C08E3519F4411587
:1038A000510551F1672D70E0641775073CF48D35B3
:1038B00061F18D3219F4992311F103C0992309F4B0
:1038C0006DC0842D869586958695F601E80FF11DCD
:1038D000842D87708D0102C0000F111F8A95E2F7B9
:1038E000C8019081892B8083641459F0461410F428
:1038F0004394E7CF4A94E5CF7724739403C091E0D3
:1039000001C090E04F5F5F4FBBCF992319F08E81CC
:1039100080628E83711003C07724739419C0F601FE
:103920009E012F5D3F4F8081809581932E173F0729
:10393000D1F7F2CFE114F10431F0F7018083B70140
:103940006F5F7F4F7B0171E0871A9108712CF9F04E
:10395000C5010E94B62497FD18C0FC01FF2723E093
:10396000F595E7952A95E1F7EC0DFD1D208130E0F6
:10397000AC014770552702C0359527954A95E2F767
:1039800020FDD8CFB5010E942A26711083CFE11403
:10399000F10411F0F7011082C80115C0682F669577
:1039A00066956695F601E60FF11D682F67708D012B
:1039B00002C0000F111F6A95E2F7B8017081672BF2
:1039C0006083682E9FCFA0960FB6F894DEBF0FBE1F
:1039D000CDBFDF91CF911F910F91FF90EF90DF90BE
:1039E000CF90BF90AF909F908F907F906F905F909F
:1039F0004F9008952F923F924F925F926F927F92D5
:103A00009F92AF92BF92CF92DF92EF92FF920F936D
:103A10001F93CF93DF936C018B011A01A7D7EC01A1
:103A200099278B32910529F08D9779F430E8932E00
:103A300001C0912C0150110911F480E002C1C601AE
:103A400095D7EC0197FF02C0F8CF912CCE01DDD6BF
:103A50008936910531F08E36910589F5C5EBD2E0B6
:103A600002C0C8EBD2E02196FE013197B490BB2092
:103A7000B9F00150110981F0C60178D77C0197FD9A
:103A80000BC0C3D69927EB2DF0E08E179F0759F393
:103A9000B601C7010E942A26CB5BD24071F603C053
:103AA000C85BD24029F080E090E0A0E8BFE704C006
:103AB00080E090E0A0ECBFE7BC01CD01B2C0412C9A
:103AC000512C3201E12CF12C2C2F20532A3008F5F7
:103AD000E92DE260BE2E892D887092FE06C081110C
:103AE0001FC0FFEFEF1AFF0A1BC0882319F081E007
:103AF000E81AF10840E2C301B201BFDD2B013C012D
:103B0000683979498949994158F0F92DF660BF2EF5
:103B100007C02E3F81F493FC0EC0292D2860B22EE1
:103B20000150110939F0C60121D7EC019B2C97FFF8
:103B3000CBCF01C09B2C91FE80CFCE018F7D9927EA
:103B40008534910509F03EC0580181E0A81AB108FA
:103B500009F473CFC6010AD7EC0197FD6ECF992700
:103B60008B32910529F08D9761F4E92DE0619E2E4D
:103B70005801F2E0AF1AB10809F45FCFC601F6D6DA
:103B8000EC01CE01C0970A9708F057CF8501A12C10
:103B9000B12CB501BB0C880B990B2C2F205340E2A4
:103BA0006CDD5B010150110931F0C601DFD6EC017B
:103BB000C0970A9770F394FE03C0B194A194B10822
:103BC000EA0CFB1C012B31F0D7FD04C0B601CE017D
:103BD0000E942A26C301B2010E94D303F7FE06C049
:103BE000F194E194F108C4EDD2E002C0CCEED2E051
:103BF0006E0128E1C21AD10800E210E0E016F106D9
:103C000050F0FE0125913591459154910E94610437
:103C1000E01AF10AF3CF249716950795CC16DD0626
:103C200069F797FE05C0DC01CB01B058BC01CD019E
:103C30002114310429F0F10160837183828393831D
:103C400081E0DF91CF911F910F91FF90EF90DF9076
:103C5000CF90BF90AF909F907F906F905F904F906C
:103C60003F902F9008956F927F928F929F92AF9284
:103C7000BF92CF92DF92EF92FF920F931F93CF9359
:103C8000DF935C01EB014A01FC0117821682612C73
:103C9000F5010381FE0103FD859103FF8191182F3A
:103CA000EF01882309F400C190E0A7D5892B19F012
:103CB000C5010ADDEDCF153241F4FE0103FD15917A
:103CC00003FF1191EF01153271F4C5014FD697FD35
:103CD000E9C0412F50E09C01332724173507C1F27A
:103CE000B501B8D7E1C01A3241F403FD159103FFC5
:103CF0001191EF017724739401C0712CE12CF12C08
:103D000020ED210F2A3080F4F72DF2607F2EB701CD
:103D100080E090E040E2B1DC7B01FE0103FD159103
:103D200003FF1191EF01ECCF71FE04C0E114F10427
:103D300021F4BAC0EE24EA94FE2C183619F01C3691
:103D400061F014C0FE0103FD159103FF1191EF0115
:103D5000183661F4872D8860782E972D9460792E1F
:103D6000FE0103FD159103FF1191EF01112309F4E9
:103D70009BC0612F70E083EA92E04FD5892B09F454
:103D800093C070FC07C0F401C080D180C4010296CA
:103D90004C0102C0C12CD12C1E3649F4F5014681DC
:103DA000578160E070E0272DC6015BDC71CF1336D0
:103DB000B1F471FC03C0EE24E394F12CC501D6D517
:103DC00097FD70C0C114D10429F0F6018083C601AB
:103DD00001966C0191E0E91AF10881F75FC01B358B
:103DE00051F49E01A601B701C5011DDDEC01892B2F
:103DF00009F054C04EC0C50167DC97FD53C01F36A3
:103E0000C9F140F4143691F11936B9F1183509F0B9
:103E10003AC028C01337A9F018F4103719F133C08D
:103E2000153721F11837F1F02EC0C114D10429F053
:103E3000F6010083C60101966C0191E0E91AF108D0
:103E400059F0C50193D58C0197FD06C0D6D4892BB6
:103E500061F3B501C801FED6C114D104F9F0F60131
:103E600010821CC0F72DF0647F2E07C0872D806262
:103E7000782E03C0972D9061792E272DA601B701CA
:103E8000C5013BDC04C0A601B701C501B3DD81114A
:103E900005C0F5018381807329F406C070FCF8CE5B
:103EA0006394F6CE662019F0862D90E002C08FEF65
:103EB0009FEFDF91CF911F910F91FF90EF90DF90D7
:103EC000CF90BF90AF909F908F907F906F9008950C
:103ED000EE0FFF1F881F8BBF0790F691E02D1994FE
:103EE0008F929F92AF92BF92CF92DF92EF92FF920A
:103EF0000F931F93CF93DF93EC016B016115710555
:103F000019F0FB01918380837E01FFEFEF1AFF0A16
:103F10000881802F90E071D4892B11F0E701F4CF54
:103F20000D3239F47E0182E0E80EF11C098111E0C6
:103F300008C00B3229F47E0192E0E90EF11C0981E0
:103F400010E0E701219743E050E066E771E0CE0121
:103F50006FD4892BB9F4239645E050E061E771E016
:103F6000CE0166D4892B09F42596C114D10419F029
:103F7000F601D183C0831111F2C060E070E080E8E7
:103F80009FE7F6C043E050E06EE671E0CE0150D40A
:103F9000892B59F4C114D10409F4E6C0F2E0EF0E04
:103FA000F11CF601F182E082DFC020E030E0A901DF
:103FB000C0E0D0E0F70160EDA62EA00E89E08A15E2
:103FC00028F1912F9260B92E812F887012FF04C0C2
:103FD000811123C0219621C081112197A5E0B0E075
:103FE0000CD7DC01CB01880F991FAA1FBB1F9C01B6
:103FF000AD012A0D311D411D511D283989E93807B0
:10400000480789E1580748F0166006C09EEFA912DC
:104010000AC013FD40C01860B12E8FEFE81AF80AED
:1040200000811B2DC7CF802F8F7D8534A1F5808126
:104030008D3211F4106106C08B3221F0319661E0AF
:1040400070E004C08181329662E070E080538A3073
:1040500018F0E61BF70B1FC060E070E060389CE0D2
:1040600079075CF4DB01AA0FBB1FAA0FBB1F6A0F05
:104070007B1F660F771F680F711D3196DF01119747
:104080008C9180538A3050F314FF03C07195619571
:104090007109C60FD71F11FF08C0C114D10429F040
:1040A000CF010197F60191838083CA01B9010E9473
:1040B000D303212F2370233019F04B015C0106C07C
:1040C0004B015C01B7FAB094B7F8B09420E030E04F
:1040D000A901C501B40135D6882309F43DC0D7FF35
:1040E00006C0D195C195D1090DE811E002C005EADD
:1040F00011E06801F8E1CF1AD10890E2E92EF12C25
:10410000CE15DF0574F0F801259135914591549154
:10411000C501B4010E9461044B015C01CE19DF09A5
:10412000EFCF04501109F594E7940C151D0541F7E4
:104130008A2D880F8B2D881F8F3F41F020E030E0C3
:10414000A901C501B401FDD5811106C082E290E04C
:1041500090936E0C80936D0CC501B40109C060E0B2
:1041600070E080E89FEF04C060E070E080EC9FE7C3
:10417000DF91CF911F910F91FF90EF90DF90CF9043
:10418000BF90AF909F908F9008953F924F925F9213
:104190006F927F928F929F92AF92BF92CF92DF9257
:1041A000EF92FF920F931F93CF93DF935C016B010C
:1041B0007A016115710519F0FB0191838083E11487
:1041C000F10429F0C7010297839708F0E2C0E501E6
:1041D0002196F5011081812F90E00FD3892B11F0EA
:1041E0005E01F5CF1D3229F42196F501118101E020
:1041F00007C01B3221F4E5012296F501118100E090
:10420000E114F10409F1F0E1EF16F10429F43EC0E4
:1042100010E3E114F10421F128E0E216F10401F1C8
:1042200054F4E2E0EE16F10421F5812C912CA12C3E
:10423000B0E4BB2E3DC0FAE0EF16F10439F020E106
:10424000E216F104B1F42FC0103311F1FAE0EF2EB1
:10425000F12CACEC8A2E982CA82CACE0BA2E28C0FD
:1042600078E0E72EF12C812C912CA12CE0E1BE2EE0
:104270001FC060E070E080E090E897010F2C000C18
:10428000440B550B98D549015A0112C0103359F40B
:1042900088818F7D883509F0BBCF19812296026015
:1042A00080E1E82EF12C812C912CA12C68E0B62E17
:1042B00040E060E070E0CB0127010F2C000C6608A5
:1042C0007708FE0150ED352E310E29E0231570F4EC
:1042D0002FEB210F2A3118F439EC332E06C02FE9C9
:1042E000210F2A3110F529EA322E310E232D30E02C
:1042F0002E153F05D4F447FD15C086169706A8066F
:10430000B90668F0A301920147D5630D711D811DA7
:10431000911D61307105810520E8920710F04FEF83
:1043200001C041E021961081CCCF202F2170C11413
:10433000D10471F0442329F02197F601D183C08381
:1043400007C001FF19C02297F601D183C08314C0B2
:1043500047FF12C0222329F060E070E080E090E87F
:1043600004C06FEF7FEF8FEF9FE722E230E03093E2
:104370006E0C20936D0C09C0222381F090958095DE
:10438000709561957F4F8F4F9F4F462F372F282F66
:1043900012C040E030E020E090E00DC097FFF5CF84
:1043A00082E290E090936E0C80936D0C6FEF7FEF44
:1043B0008FEF9FE7EACF642F732F822FDF91CF918A
:1043C0001F910F91FF90EF90DF90CF90BF90AF9033
:1043D0009F908F907F906F905F904F903F90089547
:1043E0003F924F925F926F927F928F929F92AF9285
:1043F000BF92CF92DF92EF92FF920F931F93CF93D2
:10440000DF935C016B017A016115710519F0FB0105
:1044100091838083E114F10429F0C7010297839707
:1044200008F0C6C0E5012196F5011081812F90E0CA
:10443000E4D1892B11F05E01F5CF1D3229F42196CC
:10444000F501118101E007C01B3221F4E50122963C
:10445000F501118100E0E114F104B1F0F0E1EF1693
:10446000F10429F4AEC010E3E114F10401F12AE0F3
:10447000E216F104A9F180E1E816F10471F0E8E038
:10448000EE16F104F1F413C0103339F588818F7DF5
:10449000883549F7198122960260F0E1EF2EF12C60
:1044A00088248A94982CA82CAFE0BA2E1FC078E0FC
:1044B000E72EF12C88248A94982CA82CEFE1BE2EAC
:1044C00015C06FEF7FEFCB0197010F2C000C440B51
:1044D000550B71D449015A0109C08AE0E82EF12C2C
:1044E00069E9862E982CA82C69E1B62E40E060E0A0
:1044F00070E0CB0127010F2C000C66087708FE0145
:1045000050ED352E310E29E0231570F42FEB210FDD
:104510002A3118F439EC332E06C02FE9210F2A3145
:1045200028F529EA322E310E232D30E02E153F05D5
:10453000ECF44F3FC1F086169706A806B90680F046
:10454000A301920129D4232D30E040E050E0620F16
:10455000731F841F951F621773078407950710F454
:104560004FEF01C041E021961081C9CFC114D104A1
:1045700051F0442311F0219703C001FF04C022979A
:10458000F601D183C08300FF07C090958095709598
:1045900061957F4F8F4F9F4F4F3F79F482E290E0BC
:1045A00090936E0C80936D0C3FEF2FEF9FEF0DC03B
:1045B00040E030E020E090E008C0462F372F282F61
:1045C00004C0103309F069CF61CF642F732F822F9D
:1045D000DF91CF911F910F91FF90EF90DF90CF90DF
:1045E000BF90AF909F908F907F906F905F904F9013
:1045F0003F9008956627772773CCFC018827992779
:10460000E89421912032E9F3293010F02E30C8F3DC
:104610002B3239F02D3231F4689403C09FD1820FD0
:10462000911D219120532A30C8F31EF49095819555
:104630009F4F0895283008F027E03327DA01990FBB
:10464000311D87FD916000966105710539F4326076
:104650002E5F3D9330E32A95E1F708959F3F30F0B8
:1046600080387105610509F03C5F3C5F3D939130F6
:1046700008F08068911DDF93CF931F930F93FF92F3
:10468000EF92192F987F9695E92F96959695E90FB9
:10469000FF27ED5FFD4F99273327EE24FF24A70165
:1046A000E70105900894079428F4360FE71EF81EDA
:1046B000491F511D660F771F881F991F0694A1F788
:1046C0000590079428F4E70EF81E491F561FC11DD8
:1046D000770F881F991F661F0694A1F7059007940E
:1046E00028F4F80E491F561FC71FD11D880F991FA8
:1046F000661F771F0694A1F70590079420F4490FD1
:10470000561FC71FD81F990F661F771F881F069453
:10471000A9F784911095177041F0D695C7955795D4
:104720004795F794E7941A95C1F7E9EAF1E06894A0
:104730001590159135916591959105907FE273954E
:10474000E118F10A430B560BC90BD009C0F7E10C75
:10475000F11E431F561FC91FD01D7EF4703311F484
:104760008A95E6CFE894015030F0080F0AF400274C
:10477000021708F4202F2395022F7A3328F079E3CB
:104780007D932A95E9F710C07D932A9589F60694C2
:1047900097956795379517951794E118F10A430B8C
:1047A000560BC90BD00998F023957E9173957A33F7
:1047B00008F070E37C932013B8F77E9170617D93CD
:1047C00030F0839571E37D9370E32A95E1F711242E
:1047D000EF90FF900F911F91CF91DF91992787FD67
:1047E000909508959111D5C280538A5028F0865C27
:1047F000806281568650B8F708959111CAC28032FE
:1048000019F089508550D0F7089591110895815479
:104810008A5108F4805E855A0895FC0105900616B9
:1048200021F00020D9F7C00108953197CF010895F4
:10483000FB01DC014150504088F08D9181341CF027
:104840008B350CF4805E659161341CF06B350CF493
:10485000605E861B611171F3990B0895881BFCCF74
:10486000FC010590615070400110D8F7809590953B
:104870008E0F9F1F0895FB01DC0102C001900D9275
:1048800041505040D8F708956817790768F4FB0144
:10489000DC01E40FF51FA40FB51F02C002900E92B9
:1048A00041505040D8F70895E6CFDC0101C06D9328
:1048B00041505040E0F70895FC018191861721F0A6
:1048C0008823D9F7992708953197CF010895FB01DF
:1048D000DC018D91019080190110D9F3990B089595
:1048E000FB01DC014150504030F08D910190801966
:1048F00019F40020B9F7881B990B0895FC01615049
:10490000704001900110D8F7809590958E0F9F1FF1
:104910000895FC0181E090E00190061609F4CF01B2
:104920000020D1F701970895FB0151915523A9F07B
:10493000BF01DC014D9145174111E1F759F4CD015B
:104940000190002049F04D9140154111C9F3FB0140
:104950004111EFCF81E090E0019708957AE0979FB1
:10496000902D879F802D910D11240895CF93DF9373
:10497000EC012B8120FF33C026FF0AC02F7B2B8345
:104980008E819F8101969F838E838A8190E029C0CA
:1049900022FF0FC0E881F9818081082E000C990B5D
:1049A000009719F420622B831AC03196F983E883AB
:1049B0000EC0EA85FB85199597FF09C02B810196EA
:1049C00011F080E201C080E1822B8B8308C02E8130
:1049D0003F812F5F3F4F3F832E83992702C08FEF88
:1049E0009FEFDF91CF9108950F931F93CF93DF93A4
:1049F000FB01238121FD03C08FEF9FEF2CC022FF1D
:104A000016C046815781248135814217530744F4EB
:104A1000A081B1819D012F5F3F4F318320838C9313
:104A2000268137812F5F3F4F3783268314C08B0148
:104A3000EC01FB010084F185E02D1995892BE1F64D
:104A4000D80116968D919C911797019617969C9375
:104A50008E931697CE01DF91CF911F910F910895FC
:104A6000CF93DF93CDB7DEB7AE014A5F5F4FFA0158
:104A700061917191AF018091690C90916A0C0E94D3
:104A80008B17DF91CF9108950F931F93CF93DF93EF
:104A9000E091690CF0916A0C238121FF1BC08C010D
:104AA000D0E0C0E0F80181918F016091690C7091B4
:104AB0006A0CDB011896ED91FC911997882331F06F
:104AC0001995892B79F3DFEFCFEFECCF8AE01995B9
:104AD000892B19F08FEF9FEF02C08D2F9C2FDF9154
:104AE000CF911F910F9108950F931F93CF93DF9351
:104AF000CDB7DEB72E970FB6F894DEBF0FBECDBF91
:104B00000E891F89888D998D26E02C831A8309834D
:104B100097FF02C080E090E801979E838D83AE01ED
:104B2000445E5F4F6A8D7B8DCE0101960E948B178C
:104B30004D815E8157FD0AC02F813885421753078A
:104B40000CF49A01F801E20FF31F10822E960FB6B3
:104B5000F894DEBF0FBECDBFDF91CF911F910F91B3
:104B600008950F931F93CF93DF93CDB7DEB72E97A2
:104B70000FB6F894DEBF0FBECDBF0E891F8986E049
:104B80008C831A8309838FEF9FE79E838D83AE0109
:104B9000465E5F4F688D798DCE0101960E948B171E
:104BA000EF81F885E00FF11F10822E960FB6F89472
:104BB000DEBF0FBECDBFDF91CF911F910F91089542
:104BC000CF93DF93CDB7DEB72E970FB6F894DEBF45
:104BD0000FBECDBF85E08C838C899D899A838983A4
:104BE000AE01485E5F4F6E897F89CE0101963BD84A
:104BF0002E960FB6F894DEBF0FBECDBFDF91CF91DA
:104C000008950F931F93CF93DF93CDB7DEB72E9701
:104C10000FB6F894DEBF0FBECDBF8C0186E08C834B
:104C20001A8309838FEF9FE79E838D83CE010196C0
:104C30000E948B17EF81F885E00FF11F10822E96EE
:104C40000FB6F894DEBF0FBECDBFDF91CF911F919D
:104C50000F910895FB01238120FF12C026FD10C093
:104C60008F3F3FEF930761F082832F7D2064238382
:104C7000268137812150310937832683992708956A
:104C80008FEF9FEF0895FA01AA27283051F12031C4
:104C900081F1E8946F936E7F6E5F7F4F8F4F9F4FD0
:104CA000AF4FB1E03ED0B4E03CD0670F781F891F12
:104CB0009A1FA11D680F791F8A1F911DA11D6A0FE0
:104CC000711D811D911DA11D20D009F468943F9193
:104CD0002AE0269F11243019305D3193DEF6CF0192
:104CE0000895462F4770405D4193B3E00FD0C9F758
:104CF000F6CF462F4F70405D4A3318F0495D31FDC5
:104D00004052419302D0A9F7EACFB4E0A695979517
:104D1000879577956795BA95C9F7009761057105ED
:104D200008959B01AC010A2E069457954795379537
:104D30002795BA95C9F7620F731F841F951FA01D91
:104D4000089503D008F481E00895990F0008550FE5
:104D5000AA0BE0E8FEEF16161706E807F907C0F001
:104D600012161306E407F50798F0621B730B840B09
:104D7000950B39F40A2661F0232B242B252B21F4E3
:104D800008950A2609F4A140A6958FEF811D811D83
:104D90000895992788270895DB018F939F932DD03D
:104DA000BF91AF91A29F800D911DA39F900DB29FC7
:104DB000900D11240895A1E21A2EAA1BBB1BFD0120
:104DC0000DC0AA1FBB1FEE1FFF1FA217B307E407EA
:104DD000F50720F0A21BB30BE40BF50B661F771F42
:104DE000881F991F1A9469F7609570958095909522
:104DF0009B01AC01BD01CF01089509D0A59F900D85
:104E0000B49F900DA49F800D911D11240895A29F21
:104E1000B001B39FC001A39F700D811D1124911D8E
:104E2000B29F700D811D1124911D0895F894FFCF3C
:104E3000013200000003000000000903110300001C
:104E4000000000000000000001010101010101015A
:104E5000010001000000010000010001010100014A
:104E6000000000000000000001010101010101013A
:104E7000000101000000010001000001010100012A
:104E8000000000000000000001010101010101011A
:104E9000010101000000010000000001010100010A
:104EA00000000000000000000101010101010101FA
:104EB00000000100000001000101000101010001EA
:104EC00000000000000000000101010101010101DA
:104ED00001010100000000000000000101010101CA
:104EE00000000000000000000101010101010101BA
:104EF00001000001000000000001010001010101AA
:104F00000000000000000000010101010101010199
:104F10000000000000000100010101010101000189
:104F20000000000000000000010101010101010179
:104F30000000010100000000010100000101010169
:104F40000000000000000000010101010101010159
:104F50000000000101000000010101000001010149
:104F60000000000000000000010101010101010139
:104F70000001010101000100010000000001000129
:104F80000000000000000000010101010101010119
:104F90000101000000000100000001010101000109
:104FA0000000000000000000000000000000000001
:104FB00000000000000000000000000000000000F1
:104FC00000000000000000000000000000000000E1
:104FD00000000000000000000000000000000000D1
:104FE00000000000000000000000000000000000C1
:104FF00000000000000000000000000000000000B1
:1050000000000000000000000000000000000000A0
:105010000000000000000000000000000000000090
:105020000000000000000000000000000000000080
:105030000000000000000000000000000000000070
:105040000000000000000000000000000000000060
:105050000000000000000000000000000000000050
:105060000000000000000000000000000000000040
:105070000000000000000000000000000000000030
:105080000000000000000000000000000000000020
:105090000000000000000000000000000000000010
:1050A0000000000000000000000000000000000000
:1050B00000000000000000000000000000000000F0
:1050C00000000000000000000000000000000000E0
:1050D00000000000000000000000000000000000D0
:1050E00016FFFF012533692F253369002F61706991
:1050F0002F536F6E67002F6170692F536F6E672F8C
:105100004E657874002F6170692F536F6E672F5052
:10511000726576696F7573002F6170692F536F6EBA
:10512000672F5061757365002F6170692F536F6E23
:10513000672F506C6179002F6170692F566F6C7505
:105140006D653F766F6C756D653D256900736F6E9B
:10515000674E616D650061727469737400766F6C7F
:10516000756D65007365636F6E647300706C617953
:1051700065645365636F6E647300496E76616C6934
:1051800064202766726F6D2720696E646578004918
:105190006E76616C69642027746F2720696E646580
:1051A000780025347800747275650066616C7365EB
:1051B00000756E6B6E6F776E206572726F722077FE
:1051C00068696C652070617273696E67204A534F1D
:1051D0004E006E6F6E2D77686974657370616365DC
:1051E000207768656E20657870656374696E6720E6
:1051F0006F626A656374207374617274006E6F6E9F
:105200002D77686974657370616365207768656E72
:1052100020657870656374696E6720617474726963
:105220006275746520737461727400756E6B6E6F55
:10523000776E20617474726962757465206E616D39
:105240006500617474726962757465206E616D6564
:1052500020746F6F206C6F6E6700736177205B2026
:105260007768656E206E6F74206578706563746909
:105270006E67206172726179006172726179206576
:105280006C656D656E7420737065636966696564CD
:105290002C20627574206E6F205B00737472696ECF
:1052A000672076616C756520746F6F206C6F6E6718
:1052B00000746F6B656E2076616C756520746F6F1E
:1052C000206C6F6E67006761726261676520776846
:1052D000696C6520657870656374696E6720636FBB
:1052E0006D6D61206F72207D206F72205D0064699A
:1052F000646E27742066696E6420657870656374D7
:1053000065642061727261792073746172740065E2
:1053100072726F72207768696C6520706172736950
:105320006E67206F626A65637420617272617900D2
:10533000746F6F206D616E79206172726179206582
:105340006C656D656E74730067617262616765207C
:105350007768696C6520657870656374696E67202D
:10536000617272617920636F6D6D6100756E737526
:1053700070706F7274656420617272617920656CFF
:10538000656D656E742074797065006572726F72F8
:10539000207768696C6520737472696E672070612C
:1053A0007273696E6700636865636B206174747201
:1053B0006962757465206E6F74206D6174636865D1
:1053C000640063616E277420737570706F7274204F
:1053D000737472696E677320696E20706172616C9C
:1053E0006C656C2061727261797300696E76616CB4
:1053F000696420656E756D6572617465642076619F
:105400006C7565007361772071756F7465642076C3
:10541000616C7565207768656E206578706563746A
:10542000696E67206E6F6E737472696E670064696F
:10543000646E2774207365652071756F74656420D0
:1054400076616C7565207768656E20657870656338
:1054500074696E6720737472696E67006F74686533
:1054600072206461746120636F6E76657273696F18
:105470006E206572726F7200756E65787065637408
:105480006564206E756C6C2076616C7565206F723A
:105490002061747472696275746520706F696E74CE
:1054A0006572006F626A65637420656C656D656E18
:1054B00074207370656369666965642C2062757415
:1054C000206E6F207B000D0A4F4B0D0A0041542BBC
:1054D0004349504D4F44453D25640041542B4349B9
:1054E000504D55583D25640041544530004154000D
:1054F00041542B434950434C4F53453D3100415497
:105500002B43574D4F44453D25640041542B435791
:105510004A41503D222573222C22257322000D0A78
:105520005749464920434F4E4E45435445440D0A82
:10553000002B43574A41503A31002B43574A4150C0
:105540003A32002B43574A41503A33002B43574AD3
:1055500041503A340041542B43495053544154551F
:1055600053005354415455533A3200535441545507
:10557000533A33005354415455533A340053544131
:105580005455533A35004349504D55583A3000412F
:10559000542B4349504D55583F0041542B434950DB
:1055A00053544152543D22544350222C22257322FD
:1055B0002C25730041542B43495053544152543DC0
:1055C000222564222C22544350222C222573222C83
:1055D000257300434F4E4E4543540D0A00436F75EB
:1055E0006C64206E6F7420636F6E6E6563742074DC
:1055F0006F204150492E2054696D6564206F757489
:105600002E0D006E61733678726A31793462776D6F
:10561000004A61636F62202D206950686F6E6500DB
:105620003533333431003137322E32302E31302E93
:10563000370041542B43495053454E443D256400A7
:105640000D0A4F4B0D0A3E00434C4F534544004753
:105650004554202573000D0A427574746F6E2070D6
:0C5660007265737365643A2025690000D0
:00000001FF
